:100000000C9462000C948A000C948A000C948A0070
:100010000C948A000C948A000C948A000C948A0038
:100020000C948A000C948A000C948A000C948A0028
:100030000C948A000C948A000C948A000C948A0018
:100040000C94EF040C948A000C945F050C94390511
:100050000C948A000C948A000C948A000C948A00F8
:100060000C948A000C948A000000000024002700F1
:100070002A0000000000250028002B0000000008D6
:10008000000201000003040700000000000000005F
:1000900000000000230026002900040404040404D6
:1000A0000404020202020202030303030303010227
:1000B00004081020408001020408102001020408F6
:1000C0001020910511241FBECFEFD8E0DEBFCDBFB9
:1000D00011E0A0E0B1E0E8E4F4E102C005900D9287
:1000E000AE39B107D9F722E0AEE9B1E001C01D9207
:1000F000A735B207E1F710E0C2E6D0E004C02197CF
:10010000FE010E941C0AC136D107C9F70E94DE0514
:100110000C94220A0C940000CF92DF92EF92FF928F
:10012000CF93DF93B0914B02A0E08111AB2F809170
:100130004C0290E0880F991FAC0140575F4FC09070
:100140005102D0905202E0905302F090540230E0FD
:1001500020E0FA01C591D491E881B90190E080E0F6
:10016000EB23EA130AC02F5F3F4F6C157D058E0508
:100170009F0578F36FEF7FEFCB01DF91CF91FF9079
:10018000EF90DF90CF90089590E0FC01E458FF4F8E
:100190002491FC01E255FF4F3491FC01E656FF4FDC
:1001A000E491EE23C9F0222339F0233001F1A8F4C1
:1001B000213019F1223029F1F0E0EE0FFF1FEE5847
:1001C000FF4FA591B4918FB7F894EC91611126C0BF
:1001D00030953E233C938FBF08952730A9F02830F7
:1001E000C9F0243049F7809180008F7D03C0809151
:1001F00080008F7780938000DFCF84B58F7784BDB8
:10020000DBCF84B58F7DFBCF8091B0008F7780935B
:10021000B000D2CF8091B0008F7DF9CF3E2BDACFE6
:10022000CF93DF9390E0FC01E255FF4F2491865677
:100230009F4FFC0184918823D1F090E0880F991F93
:10024000FC01E859FF4FA591B491FC01EE58FF4F16
:10025000C591D491623071F49FB7F8943C91822F8C
:10026000809583238C93E8812E2B28839FBFDF9179
:10027000CF9108958FB7F894EC912E2B2C938FBFCC
:10028000F6CF3FB7F89480919F019091A001A09183
:10029000A101B091A20126B5A89B05C02F3F19F07E
:1002A0000196A11DB11D3FBFBA2FA92F982F8827F6
:1002B000BC01CD01620F711D811D911D42E0660FD1
:1002C000771F881F991F4A95D1F708958F929F92A3
:1002D000AF92BF92CF92DF92EF92FF924B015C01FF
:1002E0000E9441016B017C010E9441016C197D0952
:1002F0008E099F09683E734081059105A8F321E0AE
:10030000821A9108A108B10888EEC80E83E0D81EB1
:10031000E11CF11C81149104A104B10429F7FF90A0
:10032000EF90DF90CF90BF90AF909F908F90089507
:10033000CF92DF92EF92FF920F931F93CF93DF93B1
:10034000CDB7DEB7C054D1400FB6F894DEBF0FBEB4
:10035000CDBF2FB7F8948091A3019091A401A091F3
:10036000A501B091A6012FBF40914D0250914E02C0
:1003700060914F02709150028C019D01041B150B7E
:10038000260B370BB901A801403D574061057105A7
:1003900090F480915502C05CDE4F0FB6F894DEBF3A
:1003A0000FBECDBFDF91CF911F910F91FF90EF90C6
:1003B000DF90CF90089580934D0290934E02A093CA
:1003C0004F02B093500210924802109247021092CE
:1003D0004602109245021092440262E08091490266
:1003E0000E94100161E070E080E090E00E946601F0
:1003F00061E0809149020E94100160E08091490211
:100400000E94C40080914A028551823020F58BE21F
:1004100091E10197F1F762E0809149020E94100199
:100420008091560290E08230910538F0880F991F34
:10043000880F991F05970197F1F7F89480E00E94C3
:100440008C006F3F7F4F8F4F9F4F61F4109255028A
:10045000789480E0A0CF64E170E080E090E00E94BA
:100460006601D9CF81E00E948C006F3F7F4F8F4F94
:100470009F4F61F38E010F5F1F4F6E018FEBC81A04
:100480008EEFD80A780180E00E948C00F70160832B
:1004900071838283938381E00E948C00F7016483DF
:1004A000758386839783F8E0EF0EF11CEC14FD044E
:1004B00051F7789430E020E0F801C080D180E280EC
:1004C000F3804481558166817781FFEFCF16DF0687
:1004D000EF06FF0631F04F3F8FEF580768077807A8
:1004E00019F410925502B5CFF90183E0F595E7951F
:1004F0008A95E1F7EC5BFD4F8081880FC416D50625
:10050000E606F70610F180832F5F3F4F085F1F4F0D
:100510002832310589F640914802209144028091A9
:100520004502280F3327331F80914602280F311DC3
:1005300080914702820F932F911D99274817190622
:1005400081F681E08093550226CF8160DCCFAF92A7
:10055000BF92CF92DF92EF92FF920F931F93CF93B0
:10056000DF936C017B018B01040F151FEB015E0112
:10057000AE18BF08C017D10759F06991D601ED91A7
:10058000FC910190F081E02DC6010995892B79F746
:10059000C501DF91CF911F910F91FF90EF90DF90F8
:1005A000CF90BF90AF900895FC01538D448D252FBF
:1005B00030E0842F90E0821B930B541710F0CF96FD
:1005C000089501970895FC01918D828D981761F02F
:1005D000A28DAE0FBF2FB11D5D968C91928D9F5F46
:1005E0009F73928F90E008958FEF9FEF0895FC0125
:1005F000918D828D981731F0828DE80FF11D858DD8
:1006000090E008958FEF9FEF0895FC01918D228D6A
:10061000892F90E0805C9F4F821B91098F739927EF
:10062000089587EA91E00E94050321E0892B09F4EF
:1006300020E0822F089580E090E0892B29F00E942D
:10064000110381110C9400000895FC01A48DA80FE2
:10065000B92FB11DA35ABF4F2C91848D90E0019604
:100660008F739927848FA689B7892C93A089B18924
:100670008C91837080648C93938D848D981306C0C5
:100680000288F389E02D80818F7D80830895EF9229
:10069000FF920F931F93CF93DF93EC0181E0888F3C
:1006A0009B8D8C8D98131AC0E889F989808185FF0C
:1006B00015C09FB7F894EE89FF896083E889F989AE
:1006C00080818370806480839FBF81E090E0DF91B0
:1006D000CF911F910F91FF90EF900895F62E0B8D03
:1006E00010E00F5F1F4F0F731127E02E8C8D8E11BE
:1006F0000CC00FB607FCFACFE889F989808185FF25
:10070000F5CFCE010E942503F1CFEB8DEC0FFD2F2D
:10071000F11DE35AFF4FF0829FB7F8940B8FEA89DF
:10072000FB8980818062CFCFCF93DF93EC01888DEE
:100730008823B9F0AA89BB89E889F9898C9185FD5C
:1007400003C0808186FD0DC00FB607FCF7CF8C91EA
:1007500085FFF2CF808185FFEDCFCE010E9425037A
:10076000E9CFDF91CF910895FC0101900020E9F7D6
:100770003197AF01481B590BBC0187EA91E00C94FB
:10078000A7028F929F92AF92BF920F931F93CF9326
:10079000DF93CDB7DEB7A1970FB6F894DEBF0FBEDB
:1007A000CDBF19A2423008F44AE08E010F5D1F4F01
:1007B000842E912CB12CA12CA50194010E94FA0940
:1007C000E62FB901CA01EA30F4F4E05DD801EE93F6
:1007D0008D01232B242B252B79F790E080E01097B7
:1007E00019F0CD010E94B403A1960FB6F894DEBFB4
:1007F0000FBECDBFDF91CF911F910F91BF90AF90F2
:100800009F908F900895E95CE1CFCF93DF930E9492
:10081000B403EC0182E191E00E94B4038C0F9D1FB0
:10082000DF91CF9108954F925F926F927F928F9256
:100830009F92AF92BF92CF92DF92EF92FF920F936F
:100840001F93CF936B017C01742EAC019B010E941E
:10085000F509882399F085E191E0CF911F910F91DF
:10086000FF90EF90DF90CF90BF90AF909F908F90D0
:100870007F906F905F904F900C94B40346015701A6
:10088000E894B7F82FEF3FEF4FE75FE7C501B401FA
:100890000E94F50981110DC02FEF3FEF4FE75FE791
:1008A000C501B4010E942B0818161CF489E191E0DF
:1008B000D4CF2FEF3FEF4FE75FE4C701B6010E94AF
:1008C000830918161CF48DE191E0C7CF2FEF3FEF9D
:1008D0004FE75FECC701B6010E942B0887FDF3CFFD
:1008E00020E030E0A901C701B6010E942B0810E00A
:1008F00000E087FF0AC06DE287EA91E00E944703AB
:100900008C01F7FAF094F7F8F094C0E060E070E042
:1009100080E09FE37C1641F020E030E040E251E4CB
:100920000E943008CF5FF6CFA70196010E94BF0753
:100930002B013C010E94A2084B015C014AE00E948D
:10094000C1037C01E00EF11ECC23C1F1C501B4014D
:100950000E94D1089B01AC01C301B2010E94BE07F5
:100960004B015C016EE287EA91E00E944703E80ECA
:10097000F91EC15018F120E030E040E251E4C50119
:10098000B4010E9488092B013C010E94A2084B017E
:10099000B12CA12C4AE0C501B4010E94C103E80EAC
:1009A000F91EC501B4010E94D1089B01AC01C3012D
:1009B000B2010E94BE074B015C01DBCFC701CF91A2
:1009C0001F910F91FF90EF90DF90CF90BF90AF906D
:1009D0009F908F907F906F905F904F9008951F929F
:1009E0000F920FB60F9211242F933F938F939F93E3
:1009F000AF93BF938091A3019091A401A091A50111
:100A0000B091A60130919E0123E0230F2D3758F5B8
:100A10000196A11DB11D20939E018093A301909387
:100A2000A401A093A501B093A60180919F0190918C
:100A3000A001A091A101B091A2010196A11DB11D3B
:100A400080939F019093A001A093A101B093A20174
:100A5000BF91AF919F918F913F912F910F900FBEBA
:100A60000F901F90189526E8230F0296A11DB11D27
:100A7000D2CF1F920F920FB60F9211242F933F9354
:100A80004F935F936F937F938F939F93AF93BF9396
:100A9000EF93FF9387EA91E00E942503FF91EF9186
:100AA000BF91AF919F918F917F916F915F914F9186
:100AB0003F912F910F900FBE0F901F9018951F928E
:100AC0000F920FB60F9211242F938F939F93EF9352
:100AD000FF93E091B701F091B8018081E091BD01F1
:100AE000F091BE0182FD1BC090818091C0018F5F9B
:100AF0008F732091C101821741F0E091C001F0E0B5
:100B0000E955FE4F958F8093C001FF91EF919F9122
:100B10008F912F910F900FBE0F901F90189580818D
:100B2000F4CFE7EAF1E01382128288EE93E0A0E0CE
:100B3000B0E084839583A683B78384E091E09183BA
:100B4000808385EC90E09587848784EC90E097879C
:100B5000868780EC90E0918B808B81EC90E0938B8A
:100B6000828B82EC90E0958B848B86EC90E0978B67
:100B7000868B118E128E138E148EA4E4B2E082E066
:100B800015968C93159786E116968C931697E0EB45
:100B9000F0E0E4911796EC931797ECE9F0E0E4911C
:100BA0001896EC93189740E85EE360E070E01D96BD
:100BB0004D935D936D937C9350970895789484B58D
:100BC000826084BD84B5816084BD85B5826085BD49
:100BD00085B5816085BD80916E00816080936E00D7
:100BE00010928100809181008260809381008091C9
:100BF000810081608093810080918000816080937A
:100C000080008091B10084608093B1008091B00039
:100C100081608093B00080917A00846080937A0034
:100C200080917A00826080937A0080917A0081605E
:100C300080937A0080917A00806880937A00109285
:100C4000C100E091B701F091B80182E08083E091AA
:100C5000B301F091B4011082E091B501F091B601B9
:100C60008FEC80831092BF01E091BB01F091BC0139
:100C700086E08083E091B901F091BA0180818061C2
:100C80008083E091B901F091BA018081886080830E
:100C9000E091B901F091BA01808180688083E09190
:100CA000B901F091BA0180818F7D808362E08091EB
:100CB00049020E9410012FB7F8948091A3019091EE
:100CC000A401A091A501B091A6012FBF805D97401E
:100CD000A109B10980934D0290934E02A0934F0257
:100CE000B093500287E38093560261E083E00E9454
:100CF000100161E084E00E94100160E083E00E9446
:100D0000C40060E084E00E94C400C0E0D0E00E9423
:100D10009801882341F080914A028C3009F463C025
:100D200048F48B3001F1C12CD12C90ECE92E9FE7D7
:100D3000F92E43C085518230B0F710914602612FE1
:100D400070E0762F662766277F7780914702682BB1
:100D500090E080E00E94D1082DEC3CEC4CEC5DE38F
:100D60000E9488095CC06091460270E090E080E0DB
:100D70000E94D1086B017C011091470217FF0AC045
:100D8000AC019B0160E070E080E89FEB0E94BE0731
:100D90006B017C011F70612F70E090E080E00E9489
:100DA000D3082DEC3CEC4CEC5DE30E948809A701D4
:100DB00096010E94BF076B017C010E949801882365
:100DC00009F464C080914A028B3030F08D3080F19C
:100DD0008551823008F469C0812C912C80ECA82EBA
:100DE0008FE7B82E43C010914602612F70E090E06B
:100DF00080E00E94D1086B017C01609147026F7016
:100E000070E090E080E00E94D3082DEC3CEC4CECCC
:100E10005DE30E948809A70196010E94BF076B014C
:100E20007C0117FFCACFF7FAF094F7F8F094C5CF1A
:100E30006091450270E090E080E00E94D3082DECC4
:100E40003CEC4CEC5DE30E9488094B015C01609135
:100E5000440270E090E080E00E94D3089B01AC0166
:100E6000C501B4010E94BF074B015C01A7019601B7
:100E7000C701B6010E94F509811108C0A5019401BE
:100E8000C501B4010E94F509882309F181E291E0CE
:100E90000E940504209709F43ACF0E941103882389
:100EA00009F435CF0E94000032CF60914402709166
:100EB000450276276727762790E080E00E94D108D8
:100EC0002DEC3CEC4CEC5DE30E948809CDCF81E435
:100ED00091E00E94B40342E0C701B6010E941304EE
:100EE0008FE491E00E94B40385E591E00E94B40391
:100EF00042E0C501B4010E94130480E691E00E9423
:100F0000050420E030E040EF51E4C701B6010E9443
:100F1000830918169CF461E083E00E94C40060E03D
:100F200084E00E94C40083E691E00E94050468E525
:100F30007BE180E090E00E946601ACCF20E030E0F1
:100F400040EA51E4C701B6010E942B0887FF0BC09D
:100F500061E084E00E94C40060E083E00E94C4007D
:100F600086E791E0E2CF60E083E00E94C40060E0A9
:100F700084E00E94C40089E891E0D7CF5058BB2795
:100F8000AA270E94D6070C9449090E943B0938F011
:100F90000E94420920F039F49F3F19F426F40C9482
:100FA00038090EF4E095E7FB0C943209E92F0E9412
:100FB0005A0958F3BA17620773078407950720F098
:100FC00079F4A6F50C947C090EF4E0950B2EBA2F5B
:100FD000A02D0B01B90190010C01CA01A00111243F
:100FE000FF27591B99F0593F50F4503E68F11A16EB
:100FF000F040A22F232F342F4427585FF3CF46957C
:1010000037952795A795F0405395C9F77EF41F169D
:10101000BA0B620B730B840BBAF09150A1F0FF0F67
:10102000BB1F661F771F881FC2F70EC0BA0F621F53
:10103000731F841F48F4879577956795B795F79543
:101040009E3F08F0B0CF9395880F08F09927EE0FD8
:101050009795879508950E940E0908F481E00895F8
:101060000E9444080C9449090E94420958F00E94C9
:101070003B0940F029F45F3F29F00C9432095111EB
:101080000C947D090C9438090E945A0968F399233D
:10109000B1F3552391F3951B550BBB27AA27621774
:1010A0007307840738F09F5F5F4F220F331F441F81
:1010B000AA1FA9F335D00E2E3AF0E0E832D09150B5
:1010C0005040E695001CCAF72BD0FE2F29D0660FA2
:1010D000771F881FBB1F261737074807AB07B0E8E5
:1010E00009F0BB0B802DBF01FF2793585F4F3AF0EB
:1010F0009E3F510578F00C9432090C947D095F3FB6
:10110000E4F3983ED4F3869577956795B795F79570
:101110009F5FC9F7880F911D9695879597F9089558
:10112000E1E0660F771F881FBB1F621773078407F4
:10113000BA0720F0621B730B840BBA0BEE1F88F703
:10114000E09508950E94620988F09F5798F0B92FA2
:101150009927B751B0F0E1F0660F771F881F991FEC
:101160001AF0BA95C9F714C0B13091F00E947C0909
:10117000B1E008950C947C09672F782F8827B85F19
:1011800039F0B93FCCF3869577956795B395D9F744
:101190003EF490958095709561957F4F8F4F9F4F4E
:1011A0000895E89409C097FB3EF49095809570955A
:1011B00061957F4F8F4F9F4F9923A9F0F92F96E9A3
:1011C000BB279395F695879577956795B795F11118
:1011D000F8CFFAF4BB0F11F460FF1BC06F5F7F4FB5
:1011E0008F4F9F4F16C0882311F096E911C07723C7
:1011F00021F09EE8872F762F05C0662371F096E8D0
:10120000862F70E060E02AF09A95660F771F881F9E
:10121000DAF7880F9695879597F90895990F000842
:10122000550FAA0BE0E8FEEF16161706E807F907B8
:10123000C0F012161306E407F50798F0621B730B53
:10124000840B950B39F40A2661F0232B242B252BD4
:1012500021F408950A2609F4A140A6958FEF811D77
:10126000811D089597F99F6780E870E060E0089518
:101270009FEF80EC089500240A94161617061806AE
:101280000906089500240A9412161306140605068A
:101290000895092E0394000C11F4882352F0BB0F1B
:1012A00040F4BF2B11F460FF04C06F5F7F4F8F4F7E
:1012B0009F4F089557FD9058440F551F59F05F3FB9
:1012C00071F04795880F97FB991F61F09F3F79F068
:1012D00087950895121613061406551FF2CF4695EA
:1012E000F1DF08C0161617061806991FF1CF86956C
:1012F0007105610508940895E894BB276627772750
:10130000CB0197F908950E940E0908F48FEF089514
:101310000E949B090C9449090E943B0938F00E94E5
:10132000420920F0952311F00C9432090C943809ED
:1013300011240C947D090E945A0970F3959FC1F302
:10134000950F50E0551F629FF001729FBB27F00D73
:10135000B11D639FAA27F00DB11DAA1F649F6627C8
:10136000B00DA11D661F829F2227B00DA11D621F17
:10137000739FB00DA11D621F839FA00D611D221FD1
:10138000749F3327A00D611D231F849F600D211DB5
:10139000822F762F6A2F11249F5750409AF0F1F038
:1013A00088234AF0EE0FFF1FBB1F661F771F881FA1
:1013B00091505040A9F79E3F510580F00C9432099E
:1013C0000C947D095F3FE4F3983ED4F386957795BE
:1013D0006795B795F795E7959F5FC1F7FE2B880F47
:1013E000911D9695879597F908950E940E09880B8F
:1013F000990B0895A1E21A2EAA1BBB1BFD010DC07B
:10140000AA1FBB1FEE1FFF1FA217B307E407F507B4
:1014100020F0A21BB30BE40BF50B661F771F881F90
:10142000991F1A9469F760957095809590959B0126
:10143000AC01BD01CF010895EE0FFF1F0590F4919F
:08144000E02D0994F894FFCFA0
:10144800000000004703A702D40294030503E30247
:10145800F7020D0A006E616E00696E66006F7666AF
:10146800004661696C656420746F20726561642050
:1014780066726F6D204448542073656E736F7221D5
:101488000054656D70657261747572653A2000204C
:10149800C2B043200048756D69646974793A2000C8
:1014A80020250046616E204F4E2C204865617465EA
:1014B80072204F464600486561746572204F4E2C75
:1014C8002046616E204F46460046616E204F4646D4
:0E14D8002C20486561746572204F4646000066
:00000001FF
